:100000000208D8020062D2B4C2998F993099FDC219
:0900100099C2B42212002680FE00
:03001B00020800D8
:1000230002009BC2B4E4F50B750C01F50AF509F562
:1000330008D288D2A875985075CDFF75CBFF75CCC3
:10004300DC75CADC75C830C299C298D2AC758920F8
:1000530085088C85088AD2ABD28ED2CAD2AF22C091
:10006300E0C0D075D000C007AF0CC3EF9409748013
:10007300948050097F21120006050C8014750C0032
:10008300050BAF0BD3EF9409748094804003750B79
:1000930000D007D0D0D0E032C0E0C0D0E599B43072
:1000A30006750B00750C00309802C298D0D0D0E0D2
:0B00B300323F065B4F666D7D077F6FDC
:10080000C0E0C083C082C0D075D000C007C28EAF28
:100810000BEF9000B493450990FE00F0AF0CEF9001
:1008200000B493450A90FD00F0AF088F8B8F8DD2F6
:0C0830008ED007D0D0D082D083D0E03230
:0C08D800787FE4F6D8FD75810C02001456
:00000001FF
