:090000000208B712002680FE324E
:03001300020008E0
:03001B000200627E
:10002300020800C2B4E4F508F509F50A75A0C37522
:10003300985075CDFF75CBFF75CCDC75CADC75C8E0
:1000430030C299C298D2ACD2CAF588758920758B13
:1000530080758D80D2ABD28AD2AAD2AFD28E22C083
:10006300E0C0D075D000C0070508E508C395095066
:1000730007AF09EF7008800CAF09EFF47006D2A444
:10008300D2A38004C2A4C2A3AF08EFF47002F508A0
:07009300D007D0D0D0E0320D
:10080000C0E0C0D075D000C007309830E599B4235F
:1008100012AF09C3EF94FF748094805006741925B9
:1008200009F509E599B42A04B2A1B2A2E5996421B7
:100830006005E599B43003750900C298D007D0D09F
:03084000D0E032D3
:0C08B700787FE4F6D8FD75810A0200038A
:00000001FF
