:10000000020B4302001FBB010689828A83E0225053
:1000100002E722BBFE02E32289828A83E493223232
:10002300020800E53CB53D0BE53DB53E06E53C6405
:10003300207070E53FB5400BE540B54106E53F64F0
:10004300207060E542B54D0BE54DB54E06E54264C3
:10005300207050E53CB53F0BE53FB54206E54264F1
:10006300207040E53DB5400BE540B54D06E53D64E8
:10007300207030E53EB5410AE541B54E05E53EB495
:100083002021E53CB5400AE540B54E05E53CB420EA
:1000930012E53E6540702CE54065427026E53E64FE
:1000A300206020E521B4780D75386FE52C64396044
:1000B3000F052C800B753878E536643960020536F8
:1000C300753731E5376431702EAF22EF3395E04F4A
:1000D3007025E538B478087B007A00794F8011E504
:1000E300387B00B46F067A00794380047A00792D57
:1000F3007D067F0312036F22013630012C3001216C
:1001030078013820013730014C30092320544552FF
:10011300415A3A5F00092D2052454D495321200091
:10012300012200094F205779673A207821000943BB
:10013300205779673A206F2100013C20013D2001BF
:100143003E20013F20014020014120014220014D7A
:1001530020014E2000E5376430704CE53C6420609C
:1001630046E53D64206040E53E6420603AE53F6437
:10017300206034E5406420602EE54164206028E57A
:100183004264206022E54D6420601CE54E642060DB
:100193001675373175220175995E7B007A00792DCA
:1001A3007D067F0312036F221202D275A083D2A6AB
:1001B3001202B8C2A61202C5D2A61202B8C2A61271
:1001C30002B8D2A61202B8C2A61202B8C2A0D2A620
:1001D3001202B8C2A61202B87F281202DF7F0112F0
:1001E30002DF7F081202DF7F0C1202DF7F0612029A
:1001F300DF7F0F1202DF7F010202DFAC07EC3395D2
:10020300E0FEEF64014E7007ED247FFF1202DFEC86
:10021300FF3395E0FEEF64024E7007ED24BFFF123B
:1002230002DFECFF3395E0FEEF64034E7007ED242D
:100233008FFF1202DFAF04EF3395E0FEEF64044E4D
:100243007007ED24CFFF1202DF228B0E8A0F891075
:100253007F01120288AB0EE5102410F9E4350FFA82
:100263007F02120288AB0EE5102420F9E4350FFA61
:100273007F03120288AB0EE5102430F9E4350FFA40
:100283007F040202888B118A1289137D011201FEF9
:100293001DEDFF3395E0FEC3EF9410EE6480948070
:1002A3005012AB110513E513AA12700205121203C3
:1002B300DB0D80DD22753A047539E0D539FDD53A79
:1002C300FA22753A14753970D539FDD53AFA227583
:1002D3003AC3753989D539FDD53AFA22C2A4C2A5E4
:1002E300EFC4540F53A0F042A0D2A6C2A6EF540FFE
:1002F30053A0F042A0D2A6C2A643A00FD2A5C2A487
:1003030022D2A4C2A5EFC4540F53A0F042A0D2A698
:10031300C2A6EF540F53A0F042A0D2A6C2A643A098
:100323000FD2A5C2A422E536B4330C7BFF7A03793E
:10033300ED12024D754C31E52CB4330C7BFF7A047E
:10034300792E12024D754C3122C2B475985075CD79
:10035300FF75CBFF75CCDC75CADC75C820C299C2AA
:1003630098D2ACD2CAD2AFD288D2A8228B088A093B
:10037300890A1201FEAB08AA09A90A120006600D38
:10038300050AE50A700205091203DB80E8227F32C1
:10039300EFD394007480948040127E32EED39400A5
:1003A3007480948040031E80F31F80E422E521B40F
:1003B300780475216F22E521B46F0375217822D269
:1003C300B4C2998F993099FDC299C2B4221201AB7C
:1003D3001203E412034C80FE14F9120006FF020319
:1003E300047BFF7A0479B002024D2020204B4F4E4C
:1003F300494543204752592120202020205759475F
:10040300525957413A20782120202D2D2D2D2D2D65
:100413002D2D2D2D2D2D2D2D2D2D4B4F4E52414458
:10042300204B4F57414C435A594B002020204B4FF0
:100433004E49454320475259212020202020575917
:1004430047525957413A206F2120202D2D2D2D2D14
:100453002D2D2D2D2D2D2D2D2D2D2D4B4F4E52412F
:1004630044204B4F57414C435A594B00207C207C2E
:10047300202057594752414E45202020207C207C84
:100483002020783A20206F3A20202020207C207CD6
:100493002020202020202020202020204B6F6E723F
:1004A3006164206F2F7820333633333400207C206F
:1004B3007C202057594752414E45202020207C2044
:1004C3007C2020783A20206F3A20202020207C2096
:1004D3007C2020202020202020202020204B6F6EF5
:0E04E300726164206F2F78203336333334007B
:10080000C0E0C0F0C083C082C0D075D000C000C0BE
:1008100001C002C003C004C005C006C00720980381
:10082000020A53E53764306003020953FB7A00790A
:10083000237D067F0312036F7D0D7F031201FEE50A
:1008400021B478047F788007E521B46F057F6F12AB
:1008500003E1AF99EF24CFB40900400302094A90A5
:10086000086D75F003A4C58325F0C583730208885D
:100870000208A00208B80208CF0208E30208F70243
:10088000090B02091F020933E53C642060030209D9
:100890004A7D017F011201FE85213CAF3C020944E3
:1008A000E53D6420600302094A7D037F011201FED9
:1008B00085213DAF3D020944E53E64206003020905
:1008C0004A7D057F011201FE85213EAF3E8075E520
:1008D0003F642070757D017F021201FE85213FAFCC
:1008E0003F8061E540642070617D037F021201FE5C
:1008F000852140AF40804DE5416420704D7D057FEE
:10090000021201FE852141AF418039E54264207029
:10091000397D017F031201FE852142AF428025E52A
:100920004D642070257D037F031201FE85214DAFAC
:100930004D8011E54EB420127D057F031201FE8526
:10094000214EAF4E1203E11203B0120026120158DD
:10095000120329E599B43015752C307536307521A0
:10096000787BFF7A04796F12024D754C30E59964FB
:10097000216003020A2F7D017F011201FE7F2012F8
:1009800003E17D037F011201FE7F201203E17D055B
:100990007F011201FE7F201203E17D017F0212011F
:1009A000FE7F201203E17D037F021201FE7F2012F1
:1009B00003E17D057F021201FE7F201203E17D012C
:1009C0007F031201FE7F201203E17D037F031201EA
:1009D000FE7F201203E17D057F031201FE7F2012BE
:1009E00003E17B007A0079237D067F0312036F7D8C
:1009F0000D7F031201FEE538B4780775216F7F6F14
:100A000080057521787F781203E1753730753C20B9
:100A1000753D20753E20753F20754020754120753D
:100A20004220754D20754E20C2B7120391D2B7E512
:100A30004CB430187D097F021201FEAF361203E17B
:100A40007D0D7F021201FEAF2C1203E17F0C12021A
:100A5000DFC298D007D006D005D004D003D002D092
:0E0A600001D000D0D0D082D083D0F0D0E032D0
:100B4300787FE4F6D8FD758157020B8A0203D0E45F
:100B530093A3F8E493A34003F68001F208DFF48043
:100B630029E493A3F85407240CC8C333C4540F4493
:100B730020C8834004F456800146F6DFE4800B016D
:100B8300020408102040809000FBE47E019360BCC7
:100B9300A3FF543F30E509541FFEE493A360010E05
:100BA300CF54C025E060A840B8E493A3FAE493A32C
:100BB300F8E493A3C8C582C8CAC583CAF0A3C8C54D
:0C0BC30082C8CAC583CADFE9DEE780BE35
:00000001FF
