:10000000020800D2B4C2991200968F993099FDC2AD
:0A00100099C2B422120003D20822A4
:10001B0002001EC0E0C083C082C0D075D000C001FA
:10002B00C002C003C004C005C006C007E599B45E9A
:10003B0004D2088007E599B42102C208C28EE509F3
:10004B0090013F93F5A085A020A20282038201407C
:10005B0007AF201200148014C208C3E5099403747F
:10006B00809480500405098003750900AF088F8BBD
:10007B008F8DD28ED007D006D005D004D003D002FE
:10008B00D001D0D0D082D083D0E032A9077FFFE45B
:10009B00FEEE90012793697D0060027D01EEFB7AF5
:1000AB0000C3940C748094807C0050027C01EC5D46
:1000BB0060030E80DCC3EB940CEA648094805006E2
:1000CB00EE90013393FF22C2B4E4F508F509C208A0
:1000DB0075984075CDFF75CBFF75CCDC75CADC759B
:1000EB00C81075892085088C85088AD2ABD2AFD20F
:1000FB00CAD28E227F32EFD3940074809480401248
:10010B007E32EED394007480948040031E80F31FE4
:10011B0080E4221200D280FE010900007BE7EBEDA8
:10012B00D7DBDDB7BBBD777D303132333435363776
:08013B0038392A23EF7FDFBFF2
:10080000787FE4F6D8FD75812102084702011EE4D5
:1008100093A3F8E493A34003F68001F208DFF48089
:1008200029E493A3F85407240CC8C333C4540F44D9
:1008300020C8834004F456800146F6DFE4800B01B3
:1008400002040810204080900123E47E019360BCE4
:10085000A3FF543F30E509541FFEE493A360010E4B
:10086000CF54C025E060A840B8E493A3FAE493A372
:10087000F8E493A3C8C582C8CAC583CAF0A3C8C593
:0C08800082C8CAC583CADFE9DEE780BE7B
:00000001FF
